{
  "contractName": "Voting",
  "abi": [
    {
      "inputs": [],
      "stateMutability": "nonpayable",
      "type": "constructor"
    },
    {
      "anonymous": false,
      "inputs": [
        {
          "indexed": false,
          "internalType": "uint256",
          "name": "id",
          "type": "uint256"
        },
        {
          "indexed": false,
          "internalType": "string",
          "name": "name",
          "type": "string"
        }
      ],
      "name": "CandidateAdded",
      "type": "event"
    },
    {
      "anonymous": false,
      "inputs": [
        {
          "indexed": true,
          "internalType": "address",
          "name": "voter",
          "type": "address"
        },
        {
          "indexed": false,
          "internalType": "uint256",
          "name": "candidateId",
          "type": "uint256"
        }
      ],
      "name": "Voted",
      "type": "event"
    },
    {
      "inputs": [
        {
          "internalType": "uint256",
          "name": "",
          "type": "uint256"
        }
      ],
      "name": "candidates",
      "outputs": [
        {
          "internalType": "uint256",
          "name": "id",
          "type": "uint256"
        },
        {
          "internalType": "string",
          "name": "name",
          "type": "string"
        },
        {
          "internalType": "uint256",
          "name": "voteCount",
          "type": "uint256"
        }
      ],
      "stateMutability": "view",
      "type": "function",
      "constant": true
    },
    {
      "inputs": [],
      "name": "candidatesCount",
      "outputs": [
        {
          "internalType": "uint256",
          "name": "",
          "type": "uint256"
        }
      ],
      "stateMutability": "view",
      "type": "function",
      "constant": true
    },
    {
      "inputs": [],
      "name": "owner",
      "outputs": [
        {
          "internalType": "address",
          "name": "",
          "type": "address"
        }
      ],
      "stateMutability": "view",
      "type": "function",
      "constant": true
    },
    {
      "inputs": [
        {
          "internalType": "address",
          "name": "",
          "type": "address"
        }
      ],
      "name": "voters",
      "outputs": [
        {
          "internalType": "bool",
          "name": "voted",
          "type": "bool"
        },
        {
          "internalType": "uint256",
          "name": "vote",
          "type": "uint256"
        }
      ],
      "stateMutability": "view",
      "type": "function",
      "constant": true
    },
    {
      "inputs": [
        {
          "internalType": "string",
          "name": "_name",
          "type": "string"
        }
      ],
      "name": "addCandidate",
      "outputs": [],
      "stateMutability": "nonpayable",
      "type": "function"
    },
    {
      "inputs": [
        {
          "internalType": "uint256",
          "name": "_candidateId",
          "type": "uint256"
        }
      ],
      "name": "vote",
      "outputs": [],
      "stateMutability": "nonpayable",
      "type": "function"
    },
    {
      "inputs": [
        {
          "internalType": "uint256",
          "name": "_candidateId",
          "type": "uint256"
        }
      ],
      "name": "getCandidate",
      "outputs": [
        {
          "internalType": "uint256",
          "name": "",
          "type": "uint256"
        },
        {
          "internalType": "string",
          "name": "",
          "type": "string"
        },
        {
          "internalType": "uint256",
          "name": "",
          "type": "uint256"
        }
      ],
      "stateMutability": "view",
      "type": "function",
      "constant": true
    },
    {
      "inputs": [],
      "name": "getAllCandidates",
      "outputs": [
        {
          "components": [
            {
              "internalType": "uint256",
              "name": "id",
              "type": "uint256"
            },
            {
              "internalType": "string",
              "name": "name",
              "type": "string"
            },
            {
              "internalType": "uint256",
              "name": "voteCount",
              "type": "uint256"
            }
          ],
          "internalType": "struct Voting.Candidate[]",
          "name": "",
          "type": "tuple[]"
        }
      ],
      "stateMutability": "view",
      "type": "function",
      "constant": true
    },
    {
      "inputs": [],
      "name": "winningCandidate",
      "outputs": [
        {
          "internalType": "uint256",
          "name": "",
          "type": "uint256"
        }
      ],
      "stateMutability": "view",
      "type": "function",
      "constant": true
    },
    {
      "inputs": [],
      "name": "winnerName",
      "outputs": [
        {
          "internalType": "string",
          "name": "",
          "type": "string"
        }
      ],
      "stateMutability": "view",
      "type": "function",
      "constant": true
    }
  ],
  "bytecode": "0x608060405234801561000f575f80fd5b50335f806101000a81548173ffffffffffffffffffffffffffffffffffffffff021916908373ffffffffffffffffffffffffffffffffffffffff1602179055506113fc8061005c5f395ff3fe608060405234801561000f575f80fd5b506004361061009c575f3560e01c8063462e91ec11610064578063462e91ec1461015c5780638da5cb5b14610178578063a3ec138d14610196578063d28178d7146101c7578063e2ba53f0146101e55761009c565b80630121b93f146100a05780632d35a8a2146100bc5780632e6997fe146100da5780633477ee2e146100f857806335b8e8201461012a575b5f80fd5b6100ba60048036038101906100b59190610984565b610203565b005b6100c4610382565b6040516100d191906109be565b60405180910390f35b6100e2610388565b6040516100ef9190610b78565b60405180910390f35b610112600480360381019061010d9190610984565b6104f6565b60405161012193929190610be0565b60405180910390f35b610144600480360381019061013f9190610984565b6105a2565b60405161015393929190610be0565b60405180910390f35b61017660048036038101906101719190610d48565b610684565b005b6101806107c1565b60405161018d9190610dce565b60405180910390f35b6101b060048036038101906101ab9190610e11565b6107e4565b6040516101be929190610e56565b60405180910390f35b6101cf610810565b6040516101dc91906109be565b60405180910390f35b6101ed610878565b6040516101fa9190610e7d565b60405180910390f35b5f60025f3373ffffffffffffffffffffffffffffffffffffffff1673ffffffffffffffffffffffffffffffffffffffff1681526020019081526020015f209050805f015f9054906101000a900460ff1615610293576040517f08c379a000000000000000000000000000000000000000000000000000000000815260040161028a90610ee7565b60405180910390fd5b5f821180156102a457506001548211155b6102e3576040517f08c379a00000000000000000000000000000000000000000000000000000000081526004016102da90610f4f565b60405180910390fd5b6001815f015f6101000a81548160ff02191690831515021790555081816001018190555060035f8381526020019081526020015f206002015f81548092919061032b90610f9a565b91905055503373ffffffffffffffffffffffffffffffffffffffff167f4d99b957a2bc29a30ebd96a7be8e68fe50a3c701db28a91436490b7d53870ca48360405161037691906109be565b60405180910390a25050565b60015481565b60605f60015467ffffffffffffffff8111156103a7576103a6610c24565b5b6040519080825280602002602001820160405280156103e057816020015b6103cd610921565b8152602001906001900390816103c55790505b5090505f600190505b60015481116104ee5760035f8281526020019081526020015f206040518060600160405290815f82015481526020016001820180546104279061100e565b80601f01602080910402602001604051908101604052809291908181526020018280546104539061100e565b801561049e5780601f106104755761010080835404028352916020019161049e565b820191905f5260205f20905b81548152906001019060200180831161048157829003601f168201915b50505050508152602001600282015481525050826001836104bf919061103e565b815181106104d0576104cf611071565b5b602002602001018190525080806104e690610f9a565b9150506103e9565b508091505090565b6003602052805f5260405f205f91509050805f01549080600101805461051b9061100e565b80601f01602080910402602001604051908101604052809291908181526020018280546105479061100e565b80156105925780601f1061056957610100808354040283529160200191610592565b820191905f5260205f20905b81548152906001019060200180831161057557829003601f168201915b5050505050908060020154905083565b5f60605f8060035f8681526020019081526020015f206040518060600160405290815f82015481526020016001820180546105dc9061100e565b80601f01602080910402602001604051908101604052809291908181526020018280546106089061100e565b80156106535780601f1061062a57610100808354040283529160200191610653565b820191905f5260205f20905b81548152906001019060200180831161063657829003601f168201915b505050505081526020016002820154815250509050805f015181602001518260400151935093509350509193909250565b5f8054906101000a900473ffffffffffffffffffffffffffffffffffffffff1673ffffffffffffffffffffffffffffffffffffffff163373ffffffffffffffffffffffffffffffffffffffff1614610711576040517f08c379a00000000000000000000000000000000000000000000000000000000081526004016107089061110e565b60405180910390fd5b60015f81548092919061072390610f9a565b9190505550604051806060016040528060015481526020018281526020015f81525060035f60015481526020019081526020015f205f820151815f0155602082015181600101908161077591906112c9565b50604082015181600201559050507fe83b2a43e7e82d975c8a0a6d2f045153c869e111136a34d1889ab7b598e396a3600154826040516107b6929190611398565b60405180910390a150565b5f8054906101000a900473ffffffffffffffffffffffffffffffffffffffff1681565b6002602052805f5260405f205f91509050805f015f9054906101000a900460ff16908060010154905082565b5f805f90505f80600190505b600154811161086f578260035f8381526020019081526020015f2060020154111561085c5760035f8281526020019081526020015f206002015492508091505b808061086790610f9a565b91505061081c565b50809250505090565b606060035f610885610810565b81526020019081526020015f2060010180546108a09061100e565b80601f01602080910402602001604051908101604052809291908181526020018280546108cc9061100e565b80156109175780601f106108ee57610100808354040283529160200191610917565b820191905f5260205f20905b8154815290600101906020018083116108fa57829003601f168201915b5050505050905090565b60405180606001604052805f8152602001606081526020015f81525090565b5f604051905090565b5f80fd5b5f80fd5b5f819050919050565b61096381610951565b811461096d575f80fd5b50565b5f8135905061097e8161095a565b92915050565b5f6020828403121561099957610998610949565b5b5f6109a684828501610970565b91505092915050565b6109b881610951565b82525050565b5f6020820190506109d15f8301846109af565b92915050565b5f81519050919050565b5f82825260208201905092915050565b5f819050602082019050919050565b610a0981610951565b82525050565b5f81519050919050565b5f82825260208201905092915050565b5f5b83811015610a46578082015181840152602081019050610a2b565b5f8484015250505050565b5f601f19601f8301169050919050565b5f610a6b82610a0f565b610a758185610a19565b9350610a85818560208601610a29565b610a8e81610a51565b840191505092915050565b5f606083015f830151610aae5f860182610a00565b5060208301518482036020860152610ac68282610a61565b9150506040830151610adb6040860182610a00565b508091505092915050565b5f610af18383610a99565b905092915050565b5f602082019050919050565b5f610b0f826109d7565b610b1981856109e1565b935083602082028501610b2b856109f1565b805f5b85811015610b665784840389528151610b478582610ae6565b9450610b5283610af9565b925060208a01995050600181019050610b2e565b50829750879550505050505092915050565b5f6020820190508181035f830152610b908184610b05565b905092915050565b5f82825260208201905092915050565b5f610bb282610a0f565b610bbc8185610b98565b9350610bcc818560208601610a29565b610bd581610a51565b840191505092915050565b5f606082019050610bf35f8301866109af565b8181036020830152610c058185610ba8565b9050610c1460408301846109af565b949350505050565b5f80fd5b5f80fd5b7f4e487b71000000000000000000000000000000000000000000000000000000005f52604160045260245ffd5b610c5a82610a51565b810181811067ffffffffffffffff82111715610c7957610c78610c24565b5b80604052505050565b5f610c8b610940565b9050610c978282610c51565b919050565b5f67ffffffffffffffff821115610cb657610cb5610c24565b5b610cbf82610a51565b9050602081019050919050565b828183375f83830152505050565b5f610cec610ce784610c9c565b610c82565b905082815260208101848484011115610d0857610d07610c20565b5b610d13848285610ccc565b509392505050565b5f82601f830112610d2f57610d2e610c1c565b5b8135610d3f848260208601610cda565b91505092915050565b5f60208284031215610d5d57610d5c610949565b5b5f82013567ffffffffffffffff811115610d7a57610d7961094d565b5b610d8684828501610d1b565b91505092915050565b5f73ffffffffffffffffffffffffffffffffffffffff82169050919050565b5f610db882610d8f565b9050919050565b610dc881610dae565b82525050565b5f602082019050610de15f830184610dbf565b92915050565b610df081610dae565b8114610dfa575f80fd5b50565b5f81359050610e0b81610de7565b92915050565b5f60208284031215610e2657610e25610949565b5b5f610e3384828501610dfd565b91505092915050565b5f8115159050919050565b610e5081610e3c565b82525050565b5f604082019050610e695f830185610e47565b610e7660208301846109af565b9392505050565b5f6020820190508181035f830152610e958184610ba8565b905092915050565b7f596f75206861766520616c726561647920766f746564000000000000000000005f82015250565b5f610ed1601683610b98565b9150610edc82610e9d565b602082019050919050565b5f6020820190508181035f830152610efe81610ec5565b9050919050565b7f496e76616c69642063616e6469646174652049440000000000000000000000005f82015250565b5f610f39601483610b98565b9150610f4482610f05565b602082019050919050565b5f6020820190508181035f830152610f6681610f2d565b9050919050565b7f4e487b71000000000000000000000000000000000000000000000000000000005f52601160045260245ffd5b5f610fa482610951565b91507fffffffffffffffffffffffffffffffffffffffffffffffffffffffffffffffff8203610fd657610fd5610f6d565b5b600182019050919050565b7f4e487b71000000000000000000000000000000000000000000000000000000005f52602260045260245ffd5b5f600282049050600182168061102557607f821691505b60208210810361103857611037610fe1565b5b50919050565b5f61104882610951565b915061105383610951565b925082820390508181111561106b5761106a610f6d565b5b92915050565b7f4e487b71000000000000000000000000000000000000000000000000000000005f52603260045260245ffd5b7f4f6e6c79206f776e65722063616e20706572666f726d207468697320616374695f8201527f6f6e000000000000000000000000000000000000000000000000000000000000602082015250565b5f6110f8602283610b98565b91506111038261109e565b604082019050919050565b5f6020820190508181035f830152611125816110ec565b9050919050565b5f819050815f5260205f209050919050565b5f6020601f8301049050919050565b5f82821b905092915050565b5f600883026111887fffffffffffffffffffffffffffffffffffffffffffffffffffffffffffffffff8261114d565b611192868361114d565b95508019841693508086168417925050509392505050565b5f819050919050565b5f6111cd6111c86111c384610951565b6111aa565b610951565b9050919050565b5f819050919050565b6111e6836111b3565b6111fa6111f2826111d4565b848454611159565b825550505050565b5f90565b61120e611202565b6112198184846111dd565b505050565b5b8181101561123c576112315f82611206565b60018101905061121f565b5050565b601f821115611281576112528161112c565b61125b8461113e565b8101602085101561126a578190505b61127e6112768561113e565b83018261121e565b50505b505050565b5f82821c905092915050565b5f6112a15f1984600802611286565b1980831691505092915050565b5f6112b98383611292565b9150826002028217905092915050565b6112d282610a0f565b67ffffffffffffffff8111156112eb576112ea610c24565b5b6112f5825461100e565b611300828285611240565b5f60209050601f831160018114611331575f841561131f578287015190505b61132985826112ae565b865550611390565b601f19841661133f8661112c565b5f5b8281101561136657848901518255600182019150602085019450602081019050611341565b86831015611383578489015161137f601f891682611292565b8355505b6001600288020188555050505b505050505050565b5f6040820190506113ab5f8301856109af565b81810360208301526113bd8184610ba8565b9050939250505056fea26469706673582212208045e0931d3c530557398670a5c7dc8f00db92045299660d0018b54f17637dce64736f6c63430008150033",
  "immutableReferences": {},
  "source": "// SPDX-License-Identifier: MIT\r\npragma solidity ^0.8.0;\r\n\r\n/**\r\n * @title Voting\r\n * @dev Implements voting process with candidate management\r\n */\r\ncontract Voting {\r\n\r\n    struct Voter {\r\n        bool voted;  // if true, that person already voted\r\n        uint vote;   // index of the voted candidate\r\n    }\r\n\r\n    struct Candidate {\r\n        uint id;       // candidate id\r\n        string name;   // candidate name\r\n        uint voteCount; // number of accumulated votes\r\n    }\r\n\r\n    address public owner;\r\n    uint public candidatesCount;\r\n\r\n    mapping(address => Voter) public voters;\r\n    mapping(uint => Candidate) public candidates;\r\n\r\n    event CandidateAdded(uint id, string name);\r\n    event Voted(address indexed voter, uint candidateId);\r\n\r\n    modifier onlyOwner() {\r\n        require(msg.sender == owner, \"Only owner can perform this action\");\r\n        _;\r\n    }\r\n\r\n    constructor() {\r\n        owner = msg.sender;\r\n    }\r\n\r\n    /**\r\n     * @dev Add a new candidate to the election. Only callable by owner.\r\n     * @param _name name of the candidate\r\n     */\r\n    function addCandidate(string memory _name) public onlyOwner {\r\n        candidatesCount++;\r\n        candidates[candidatesCount] = Candidate(candidatesCount, _name, 0);\r\n        emit CandidateAdded(candidatesCount, _name);\r\n    }\r\n\r\n    /**\r\n     * @dev Vote for a candidate. Each voter can only vote once.\r\n     * @param _candidateId id of the candidate to vote for\r\n     */\r\n    function vote(uint _candidateId) public {\r\n        Voter storage sender = voters[msg.sender];\r\n        require(!sender.voted, \"You have already voted\");\r\n        require(_candidateId > 0 && _candidateId <= candidatesCount, \"Invalid candidate ID\");\r\n\r\n        sender.voted = true;\r\n        sender.vote = _candidateId;\r\n        candidates[_candidateId].voteCount++;\r\n\r\n        emit Voted(msg.sender, _candidateId);\r\n    }\r\n\r\n    /**\r\n     * @dev Get the details of a candidate.\r\n     * @param _candidateId id of the candidate\r\n     * @return id, name, and vote count of the candidate\r\n     */\r\n    function getCandidate(uint _candidateId) public view returns (uint, string memory, uint) {\r\n        Candidate memory candidate = candidates[_candidateId];\r\n        return (candidate.id, candidate.name, candidate.voteCount);\r\n    }\r\n\r\n    /**\r\n     * @dev Get the details of all candidates.\r\n     * @return array of all candidates\r\n     */\r\n    function getAllCandidates() public view returns (Candidate[] memory) {\r\n        Candidate[] memory allCandidates = new Candidate[](candidatesCount);\r\n        for (uint i = 1; i <= candidatesCount; i++) {\r\n            allCandidates[i - 1] = candidates[i];\r\n        }\r\n        return allCandidates;\r\n    }\r\n\r\n    /**\r\n     * @dev Computes the candidate with the most votes.\r\n     * @return id of the winning candidate\r\n     */\r\n    function winningCandidate() public view returns (uint) {\r\n        uint winningVoteCount = 0;\r\n        uint winningCandidateId = 0;\r\n        for (uint i = 1; i <= candidatesCount; i++) {\r\n            if (candidates[i].voteCount > winningVoteCount) {\r\n                winningVoteCount = candidates[i].voteCount;\r\n                winningCandidateId = i;\r\n            }\r\n        }\r\n        return winningCandidateId;\r\n    }\r\n\r\n    /**\r\n     * @dev Returns the name of the winning candidate.\r\n     * @return name of the winning candidate\r\n     */\r\n    function winnerName() public view returns (string memory) {\r\n        return candidates[winningCandidate()].name;\r\n    }\r\n}\r\n",
  "sourcePath": "D:\\csit\\Voting System\\contracts\\Voting.sol",
  "compiler": {
    "name": "solc",
    "version": "0.8.21+commit.d9974bed.Emscripten.clang"
  },
  "schemaVersion": "3.4.16",
  "updatedAt": "2024-06-07T06:45:00.836Z",
  "networkType": "ethereum",
  "devdoc": {
    "details": "Implements voting process with candidate management",
    "kind": "dev",
    "methods": {
      "addCandidate(string)": {
        "details": "Add a new candidate to the election. Only callable by owner.",
        "params": {
          "_name": "name of the candidate"
        }
      },
      "getAllCandidates()": {
        "details": "Get the details of all candidates.",
        "returns": {
          "_0": "array of all candidates"
        }
      },
      "getCandidate(uint256)": {
        "details": "Get the details of a candidate.",
        "params": {
          "_candidateId": "id of the candidate"
        },
        "returns": {
          "_0": "id, name, and vote count of the candidate"
        }
      },
      "vote(uint256)": {
        "details": "Vote for a candidate. Each voter can only vote once.",
        "params": {
          "_candidateId": "id of the candidate to vote for"
        }
      },
      "winnerName()": {
        "details": "Returns the name of the winning candidate.",
        "returns": {
          "_0": "name of the winning candidate"
        }
      },
      "winningCandidate()": {
        "details": "Computes the candidate with the most votes.",
        "returns": {
          "_0": "id of the winning candidate"
        }
      }
    },
    "title": "Voting",
    "version": 1
  },
  "userdoc": {
    "kind": "user",
    "methods": {},
    "version": 1
  }
}